{
  "contractName": "DecentralBank",
  "abi": [
    {
      "inputs": [
        {
          "internalType": "contract Rewards",
          "name": "_rewards",
          "type": "address"
        },
        {
          "internalType": "contract Tether",
          "name": "_tether",
          "type": "address"
        }
      ],
      "payable": false,
      "stateMutability": "nonpayable",
      "type": "constructor"
    },
    {
      "constant": true,
      "inputs": [
        {
          "internalType": "address",
          "name": "",
          "type": "address"
        }
      ],
      "name": "hasStaked",
      "outputs": [
        {
          "internalType": "bool",
          "name": "",
          "type": "bool"
        }
      ],
      "payable": false,
      "stateMutability": "view",
      "type": "function"
    },
    {
      "constant": true,
      "inputs": [
        {
          "internalType": "address",
          "name": "",
          "type": "address"
        }
      ],
      "name": "isStaking",
      "outputs": [
        {
          "internalType": "bool",
          "name": "",
          "type": "bool"
        }
      ],
      "payable": false,
      "stateMutability": "view",
      "type": "function"
    },
    {
      "constant": true,
      "inputs": [],
      "name": "name",
      "outputs": [
        {
          "internalType": "string",
          "name": "",
          "type": "string"
        }
      ],
      "payable": false,
      "stateMutability": "view",
      "type": "function"
    },
    {
      "constant": true,
      "inputs": [],
      "name": "owner",
      "outputs": [
        {
          "internalType": "address",
          "name": "",
          "type": "address"
        }
      ],
      "payable": false,
      "stateMutability": "view",
      "type": "function"
    },
    {
      "constant": true,
      "inputs": [],
      "name": "rewards",
      "outputs": [
        {
          "internalType": "contract Rewards",
          "name": "",
          "type": "address"
        }
      ],
      "payable": false,
      "stateMutability": "view",
      "type": "function"
    },
    {
      "constant": true,
      "inputs": [
        {
          "internalType": "uint256",
          "name": "",
          "type": "uint256"
        }
      ],
      "name": "stakers",
      "outputs": [
        {
          "internalType": "address",
          "name": "",
          "type": "address"
        }
      ],
      "payable": false,
      "stateMutability": "view",
      "type": "function"
    },
    {
      "constant": true,
      "inputs": [
        {
          "internalType": "address",
          "name": "",
          "type": "address"
        }
      ],
      "name": "stakingBalance",
      "outputs": [
        {
          "internalType": "uint256",
          "name": "",
          "type": "uint256"
        }
      ],
      "payable": false,
      "stateMutability": "view",
      "type": "function"
    },
    {
      "constant": true,
      "inputs": [],
      "name": "tether",
      "outputs": [
        {
          "internalType": "contract Tether",
          "name": "",
          "type": "address"
        }
      ],
      "payable": false,
      "stateMutability": "view",
      "type": "function"
    },
    {
      "constant": false,
      "inputs": [
        {
          "internalType": "uint256",
          "name": "_amount",
          "type": "uint256"
        }
      ],
      "name": "depositTokens",
      "outputs": [],
      "payable": false,
      "stateMutability": "nonpayable",
      "type": "function"
    },
    {
      "constant": false,
      "inputs": [],
      "name": "issueRewards",
      "outputs": [],
      "payable": false,
      "stateMutability": "nonpayable",
      "type": "function"
    },
    {
      "constant": false,
      "inputs": [
        {
          "internalType": "uint256",
          "name": "amount",
          "type": "uint256"
        }
      ],
      "name": "unstakeRewards",
      "outputs": [],
      "payable": false,
      "stateMutability": "nonpayable",
      "type": "function"
    }
  ],
  "bytecode": "0x60c0604052600e60808190526d446563656e7472616c2042616e6b60901b60a090815261002f91600091906100a9565b5034801561003c57600080fd5b506040516109b93803806109b98339818101604052604081101561005f57600080fd5b508051602090910151600280546001600160a01b039283166001600160a01b0319918216179091556003805492909316918116919091179091556001805490911633179055610144565b828054600181600116156101000203166002900490600052602060002090601f016020900481019282601f106100ea57805160ff1916838001178555610117565b82800160010185558215610117579182015b828111156101175782518255916020019190600101906100fc565b50610123929150610127565b5090565b61014191905b80821115610123576000815560010161012d565b90565b610866806101536000396000f3fe608060405234801561001057600080fd5b50600436106100a95760003560e01c80638da5cb5b116100715780638da5cb5b146101e05780639ec5a894146101e8578063b0370e0c146101f0578063c93c8f34146101f8578063dd49756e1461021e578063fd5e6dd11461023b576100a9565b806306fdde03146100ae578063083b19311461012b57806345bc78ab1461014a5780635efc071a146101825780636f49712b146101a6575b600080fd5b6100b6610258565b6040805160208082528351818301528351919283929083019185019080838360005b838110156100f05781810151838201526020016100d8565b50505050905090810190601f16801561011d5780820380516001836020036101000a031916815260200191505b509250505060405180910390f35b6101486004803603602081101561014157600080fd5b50356102e6565b005b6101706004803603602081101561016057600080fd5b50356001600160a01b031661043f565b60408051918252519081900360200190f35b61018a610451565b604080516001600160a01b039092168252519081900360200190f35b6101cc600480360360208110156101bc57600080fd5b50356001600160a01b0316610460565b604080519115158252519081900360200190f35b61018a610475565b61018a610484565b610148610493565b6101cc6004803603602081101561020e57600080fd5b50356001600160a01b03166105d2565b6101486004803603602081101561023457600080fd5b50356105e7565b61018a6004803603602081101561025157600080fd5b50356107e1565b6000805460408051602060026001851615610100026000190190941693909304601f810184900484028201840190925281815292918301828280156102de5780601f106102b3576101008083540402835291602001916102de565b820191906000526020600020905b8154815290600101906020018083116102c157829003601f168201915b505050505081565b3360009081526005602052604090205480610348576040805162461bcd60e51b815260206004820181905260248201527f796f75722062616c616e63652063616e74206265206c657373207468616e2030604482015290519081900360640190fd5b808211156103875760405162461bcd60e51b81526004018080602001828103825260298152602001806108096029913960400191505060405180910390fd5b6002546040805163a9059cbb60e01b81523360048201526024810185905290516001600160a01b039092169163a9059cbb916044808201926020929091908290030181600087803b1580156103db57600080fd5b505af11580156103ef573d6000803e3d6000fd5b505050506040513d602081101561040557600080fd5b505033600090815260056020526040902080548390039081905561043b57336000908152600760205260409020805460ff191690555b5050565b60056020526000908152604090205481565b6002546001600160a01b031681565b60076020526000908152604090205460ff1681565b6001546001600160a01b031681565b6003546001600160a01b031681565b6001546001600160a01b031633146104f2576040805162461bcd60e51b815260206004820152601b60248201527f6f6e6c79206f776e65722063616e20697373756520746f6b656e730000000000604482015290519081900360640190fd5b60005b6004548110156105cf5760006004828154811061050e57fe5b6000918252602080832091909101546001600160a01b031680835260059091526040909120549091506009810481156105c4576003546040805163a9059cbb60e01b81526001600160a01b038681166004830152602482018590529151919092169163a9059cbb9160448083019260209291908290030181600087803b15801561059757600080fd5b505af11580156105ab573d6000803e3d6000fd5b505050506040513d60208110156105c157600080fd5b50505b5050506001016104f5565b50565b60066020526000908152604090205460ff1681565b6000811161063c576040805162461bcd60e51b815260206004820152601d60248201527f616d6f756e74206d7573742062652067726561746572207468616e2030000000604482015290519081900360640190fd5b6002546040805163095ea7b360e01b81523360048201526024810184905290516001600160a01b039092169163095ea7b3916044808201926020929091908290030181600087803b15801561069057600080fd5b505af11580156106a4573d6000803e3d6000fd5b505050506040513d60208110156106ba57600080fd5b5050600254604080516323b872dd60e01b81523360048201523060248201526044810184905290516001600160a01b03909216916323b872dd916064808201926020929091908290030181600087803b15801561071657600080fd5b505af115801561072a573d6000803e3d6000fd5b505050506040513d602081101561074057600080fd5b5050336000908152600560209081526040808320805485019055600690915290205460ff166107ac57600480546001810182556000919091527f8a35acfbc15ff81a39ae7d344fd709f28e8600b4aa8c65c6b64bfe7fe36bd19b0180546001600160a01b031916331790555b503360009081526006602090815260408083208054600160ff1991821681179092556007909352922080549091169091179055565b600481815481106107ee57fe5b6000918252602090912001546001600160a01b031690508156fe796f752063616e6e6f7420756e7374616b65206d6f7265207468616e20796f75722062616c616e6365a265627a7a723158202727367a71f267c0ee0ae551fe52ed894b01ed48da0e315a8c6ca0e32b20933664736f6c63430005100032",
  "source": "pragma solidity ^0.5.16;\r\n\r\nimport \"./Rewards.sol\";\r\nimport \"./Tether.sol\";\r\n\r\ncontract DecentralBank {\r\n    string public name = \"Decentral Bank\";\r\n    address public owner;\r\n    Tether public tether;\r\n    Rewards public rewards;\r\n\r\n    address[] public stakers;\r\n\r\n    mapping(address => uint) public stakingBalance;\r\n    mapping(address => bool) public hasStaked;\r\n    mapping(address => bool) public isStaking;\r\n\r\n\r\n    constructor(Rewards _rewards, Tether _tether) public {\r\n        tether = _tether;\r\n        rewards = _rewards;\r\n        owner = msg.sender;\r\n    }\r\n\r\n    function depositTokens(uint _amount) public {\r\n\r\n        // Require the  amount to be greater than zero\r\n        require(_amount > 0,'amount must be greater than 0');\r\n\r\n        // Transfer Thether tokens to this contract for staking\r\n        tether.approve(msg.sender,_amount);\r\n        tether.transferFrom(msg.sender, address(this), _amount);\r\n\r\n        // Append balance\r\n        stakingBalance[msg.sender] += _amount;\r\n\r\n        if(hasStaked[msg.sender] == false){\r\n            stakers.push(msg.sender);\r\n        }\r\n\r\n        // Update staking info\r\n        hasStaked[msg.sender] = true;\r\n        isStaking[msg.sender] = true;\r\n    }\r\n\r\n    // Issue rewards function\r\n    function issueRewards() public {\r\n        // only owner can run this\r\n        require(msg.sender == owner, 'only owner can issue tokens');\r\n\r\n        // Loop through staker addresses \r\n        for (uint i=0; i<stakers.length; i++)\r\n        {\r\n            address recipient = stakers[i];\r\n            uint balance = stakingBalance[recipient];\r\n            uint stakingReward = balance / 9;\r\n            // check if they are currently staking\r\n            if(balance > 0){\r\n                rewards.transfer(recipient, stakingReward);\r\n            }\r\n        }\r\n\r\n    }\r\n\r\n    // Unstake function: withdraw tether tokens\r\n    function unstakeRewards(uint amount) public {\r\n        uint balance = stakingBalance[msg.sender];\r\n\r\n        // only owner can run this\r\n        require(balance > 0 , 'your balance cant be less than 0');\r\n        // only owner can run this\r\n        require(amount <= balance, 'you cannot unstake more than your balance');   \r\n       \r\n        tether.transfer(msg.sender, amount);\r\n        stakingBalance[msg.sender] -= amount;\r\n        \r\n        if(stakingBalance[msg.sender] <= 0){\r\n            isStaking[msg.sender] = false;\r\n        }\r\n    }\r\n}\r\n",
  "sourcePath": "C:\\Users\\Stacks\\Documents\\Learning Journey\\Dapp Development\\defi-staking-app-starter\\defi-staking-app-starter\\src\\contracts\\DecentralBank.sol",
  "compiler": {
    "name": "solc",
    "version": "0.5.16+commit.9c3226ce.Emscripten.clang"
  },
  "schemaVersion": "3.4.16",
  "updatedAt": "2023-12-19T16:02:30.550Z",
  "networkType": "ethereum",
  "devdoc": {
    "methods": {}
  },
  "userdoc": {
    "methods": {}
  }
}